:100000000C949B000C94B8000C94B8000C94B800AD
:100010000C94B8000C94B8000C94B8000C94B80080
:100020000C94B8000C944D010C94B8000C941B0176
:100030000C94B8000C94B8000C94B8000C94B80060
:100040000C94B8000C94B8000C94B8000C94B80050
:100050000C94B8000C94B8000C94B8000C94B80040
:100060000C94B8000C94B8000C94B8000C94B80030
:100070000C94B8000C94B8000C94B8000C94B80020
:100080000C94B8000C94B8000C94B8000C94B80010
:100090000C94B8000C94B8000C94B8000C94B80000
:1000A0000C94B8000C94B8000C94B8000C94B800F0
:1000B0000C94B80007634236B79BD8A71A39685624
:1000C00018AEBAAB558C1D3CB7CC5763BD6DEDFD7A
:1000D000753EF6177231BF000000803F0800000037
:1000E000BE922449123EABAAAA2ABECDCCCC4C3E2D
:1000F00000000080BEABAAAAAA3E00000000BF001C
:100100000000803F0000000000084178D3BB438717
:10011000D1133D190E3CC3BD4282AD2B3E68EC822B
:1001200076BED98FE1A93E4C80EFFFBE01C4FF7FB0
:100130003F000000000011241FBECFEFD8E0DEBF5B
:10014000CDBF11E0A0E0B1E0E4EAF1E102C005902A
:100150000D92AA32B107D9F721E0AAE2B1E001C0BD
:100160001D92AC33B207E1F70E9426040C94D0082C
:100170000C9400008AB18E678AB9089589B180769F
:100180008BB908951F93CF93DF93C82FD62F142FC9
:10019000822F0E940D0489B1807682608BB987EC32
:1001A00090E00197F1F700C000000E94BE00812F8F
:1001B0000E940D0489B1807684608BB987EC90E051
:1001C0000197F1F700C000000E94BE008D2F0E9431
:1001D0000D0489B1807688608BB987EC90E0019737
:1001E000F1F700C000000E94BE008C2F0E940D0499
:1001F00089B1807680618BB987EC90E00197F1F747
:1002000000C000000E94BE00DF91CF911F910895B1
:10021000F8948FE39FE19093890080938800E1E850
:10022000F0E0808189608083EFE6F0E08081826089
:100230008083789408951F920F920FB60F92112425
:100240008F939F93CF93DF931F92CDB7DEB78FB776
:10025000898380912C0190912D01019690932D011D
:1002600080932C0189818FBF0F90DF91CF919F9157
:100270008F910F900FBE0F901F901895F89480E209
:100280008093B6001092B00085E08093B100E0E763
:10029000F0E080818160808308951F920F920FB6F5
:1002A0000F9211242F933F934F935F936F937F93FC
:1002B0008F939F93AF93BF93EF93FF93CF93DF936E
:1002C0001F92CDB7DEB78FB7898380912A019091B5
:1002D0002B01019690932B0180932A010E941D020D
:1002E00089818FBF0F90DF91CF91FF91EF91BF91E7
:1002F000AF919F918F917F916F915F914F913F91BE
:100300002F910F900FBE0F901F9018952F923F9234
:100310004F925F926F927F928F929F92AF92BF9215
:10032000CF92DF92EF92FF920F931F93CF93DF93C1
:1003300000D000D0CDB7DEB72C01FB010097B1F0A3
:100340009C01312CADECBCEC0E94AD089C013695B3
:100350002795369527953695279522242394230CA7
:100360002115310509F440C0322CECCF10821182E6
:100370004DC02B813C81B901330F880B990B0E9432
:10038000AE059B01AC0160E070E080E291E40E9468
:100390003A064B015C01C301B2010E94AC05A50104
:1003A00094010E9404050E947605CB01B6010E94CB
:1003B0009908F70181937F012B813C812F5F3F4F8B
:1003C0003C832B8320173107A1F68FEF830D8E3FDF
:1003D000E8F0E981FA81E20DF11D11920F5F1F4FE4
:1003E00002301105D4F312C0FA83E983022D10E024
:1003F0001016110654F77F011C821B82612C712C90
:100400000F2EFAE0CF2ED12CF02DB3CF0F900F90FE
:100410000F900F90DF91CF911F910F91FF90EF9070
:10042000DF90CF90BF90AF909F908F907F906F9014
:100430005F904F903F902F90089580912A01909166
:100440002B018C33910528F490933B0180933A0162
:10045000089510923B0110923A0110922B011092D4
:100460002A01809138019091390101968C339105D0
:1004700028F490933901809338010895109239013E
:1004800010923801809127019091280101968D30BA
:10049000910528F49093280180932701089581E025
:1004A00090E090932801809327010895CF92DF92E6
:1004B000EF92FF92CF93DF93FC01A081B0E0909682
:1004C0004C9181E090E09C01018002C0220F331F1B
:1004D0000A94E2F724232283AAE0B1E0CC91D0E091
:1004E00028A111960C90119702C0880F991F0A94A9
:1004F000E2F7822312968C9322818381281789F157
:1005000080912C0190912D01A0E0B0E0858396832D
:10051000A783B087238341855285638574856C01E9
:100520007D01C41AD50AE60AF70A4091260150E077
:1005300060E070E04C155D056E057F0558F42223E0
:1005400059F0248121110AC081879287A387B4873B
:1005500081E005C080E003C080E001C080E014823B
:1005600027C021111EC080912C0190912D01A0E087
:10057000B0E04581568167817085841B950BA60B81
:10058000B70B409124015091250160E070E04817BD
:1005900059076A077B0738F48481882331F080E0AB
:1005A00007C080E005C080E003C081E0848382E072
:1005B000DF91CF91FF90EF90DF90CF900895A7E16A
:1005C000B1E0EC91F0E031A181E090E0AC01119656
:1005D0000C9002C0440F551F0A94E2F7242F209577
:1005E000232321A3AAE0B1E0EC91F0E021A1119630
:1005F0000C9002C0880F991F0A94E2F7809582231D
:1006000081A308950F931F9340912C0150912D01C8
:1006100060E070E000912E0110912F0120913001D7
:1006200030913101401B510B620B730B4B3F510555
:100630006105710530F0892B39F48BB180668BB977
:1006400015C0892B99F4F9CF80912C0190912D013F
:10065000A0E0B0E080932E0190932F01A093300191
:10066000B09331019BB180E689278BB91F910F911F
:100670000895AF92BF92CF92DF92EF92FF920F93C5
:100680001F93CF93DF9300D000D0CDB7DEB780911A
:100690003801E82E00912701102FBE016D5F7F4FBA
:1006A00090E00E948601BE016F5F7F4F802F90E037
:1006B0000E948601D12CCC24C39403C00D2D0111BE
:1006C00094C081E090E00E94020387E191E00E94E3
:1006D0005602082F8AE091E00E945602F82E1A3046
:1006E000B0F48B8190E080509F4FAC81B0E0A0507F
:1006F000BF4FE981F0E0BF0160507F4FFC012081D6
:100700004C91FB0160818FEF0E94C2001BC02B81C6
:1007100030E020503F4F8C8190E080509F4FA98166
:10072000B0E0A050BF4FEA81F0E0AF0140505F4F12
:100730005A01F9012081FC0140816C91F501808111
:100740000E94C200013019F0023099F031C01F5FE1
:100750001D3008F011E0BE016F5F7F4F812F90E0E8
:100760000E948601F1E0FF1651F142E0F412A9CF98
:1007700038C080E090E00E9402038E2D90E09093BC
:10078000390180933801812F90E090932801809364
:10079000270110923B0110923A0110922B01109206
:1007A0002A0151E0F51669F082E0F816D1F01DC07B
:1007B000E1E0FE1641F0F2E0FF1280CF12C00D2DF5
:1007C00003C00C2D01C00D2DE3944BE34E1508F42E
:1007D000E12CBE016D5F7F4F8E2D90E00E9486015F
:1007E0006ECF80E090E00E9402030F900F900F9078
:1007F0000F90DF91CF911F910F91FF90EF90DF90BD
:10080000CF90BF90AF90089587B18C6187B9509A0F
:1008100088B1886188B95898089520E030E090E068
:10082000AC01022E02C0559547950A94E2F740FFAD
:1008300002C0429A01C042984398439A2F5F3F4FAB
:100840002830310569F74498449A08950E943E0182
:100850000E9408010E94DF020E9404040E94BA0064
:1008600080E090E00E940203A0903801A094909054
:100870002701909410913A0110950F2EF0E68F2EDB
:10088000F02D77247394C2E3D1E0B12C0F2EF7E260
:10089000CF2EF1E0DF2EF02D87E191E00E9456028D
:1008A000F82E8AE091E00E945602082F21E0F2160D
:1008B00021F042E0F41629F006C08BB188258BB9EF
:1008C00002C00E943903013019F0023029F02AC019
:1008D0008BB188258BB926C0E0902C01F0902D01BA
:1008E000072D80912C0190912D018E199F09893837
:1008F000934108F07EC080913A0190913B01212FF5
:1009000030E02817390731F001C00B2D182FBE0138
:100910000E948601288149816FEF8FEF0E94C200FB
:100920000111DFCF80913801909139012A2D30E0FB
:100930002817390749F4292D30E0409127015091BB
:1009400028012417350779F0A82EF601908066E378
:1009500071E00E94860164E371E08091270190912B
:1009600028010E94860180912701909128010A9711
:10097000C8F4E6E3F1E0808190E080509F4FA181D0
:10098000B0E0A050BF4FE0913401F0E0BF016050F3
:100990007F4FFC0120814C91FB0160818FEF0E9411
:1009A000C2007ACFE6E3F1E0208130E020503F4FF3
:1009B000818190E080509F4FE4E3F1E0A081B0E0BE
:1009C000A050BF4FE181F0E0AF0140505F4F7A018E
:1009D000F9012081FC0140816C91F70180810E9426
:1009E000C2005ACF288149816FEF8FEF0E94C20069
:1009F00099CF80913A0190913B01212F30E0281747
:100A0000390709F082CFEECF0E9418050C9400063A
:100A10000E94F90558F00E94F20540F029F45F3F6A
:100A200029F00C94E90551110C9434060C94EF054F
:100A30000E94110668F39923B1F3552391F3951B96
:100A4000550BBB27AA2762177307840738F09F5FEF
:100A50005F4F220F331F441FAA1FA9F335D00E2E5C
:100A60003AF0E0E832D091505040E695001CCAF7C9
:100A70002BD0FE2F29D0660F771F881FBB1F26178C
:100A800037074807AB07B0E809F0BB0B802DBF0163
:100A9000FF2793585F4F3AF09E3F510578F00C9432
:100AA000E9050C9434065F3FE4F3983ED4F3869551
:100AB00077956795B795F7959F5FC9F7880F911D53
:100AC0009695879597F90895E1E0660F771F881F3F
:100AD000BB1F621773078407BA0720F0621B730BF2
:100AE000840BBA0BEE1F88F7E09508950E947D05F0
:100AF0006894B1110C94340608950E94190688F088
:100B00009F5798F0B92F9927B751B0F0E1F0660FD1
:100B1000771F881F991F1AF0BA95C9F714C0B13012
:100B200091F00E943306B1E008950C943306672FCC
:100B3000782F8827B85F39F0B93FCCF38695779541
:100B40006795B395D9F73EF490958095709561952A
:100B50007F4F8F4F9F4F0895E89409C097FB3EF455
:100B600090958095709561957F4F8F4F9F4F9923FA
:100B7000A9F0F92F96E9BB279395F6958795779578
:100B80006795B795F111F8CFFAF4BB0F11F460FF38
:100B90001BC06F5F7F4F8F4F9F4F16C0882311F090
:100BA00096E911C0772321F09EE8872F762F05C0A4
:100BB000662371F096E8862F70E060E02AF09A953F
:100BC000660F771F881FDAF7880F9695879597F934
:100BD000089597F99F6780E870E060E008959FEFBF
:100BE00080EC089500240A941616170618060906C4
:100BF000089500240A941216130614060506089593
:100C0000092E0394000C11F4882352F0BB0F40F41A
:100C1000BF2B11F460FF04C06F5F7F4F8F4F9F4F5A
:100C2000089557FD9058440F551F59F05F3F71F0DC
:100C30004795880F97FB991F61F09F3F79F0879543
:100C40000895121613061406551FF2CF4695F1DFCC
:100C500008C0161617061806991FF1CF869571055C
:100C6000610508940895E894BB2766277727CB0190
:100C700097F90895FA01EE0FFF1F3096210531050F
:100C8000A1F16115710561F48038BFE39B0749F15B
:100C900068949038810561F08038BFEF9B0741F080
:100CA00099234AF5FF3FE1053105210519F1E89443
:100CB0000894E795D901AA2329F4AB2FBE2FF85F3A
:100CC000D0F310C0FF5F70F4A695E0F7F73950F04D
:100CD00019F0FF3A38F49F779F930DD00F9007FCDF
:100CE0009058089546F00C94EF0560E070E080E8BD
:100CF0009FE308954FE79F775F934F933F932F9321
:100D00000E9435072F913F914F915F910E94B1074B
:100D10000C94920629F416F00C94E9050C94330611
:100D20000C94EF050E941906A8F39638A0F707F86F
:100D30000F92E8942BE33AEA48EB5FE70E94C7077B
:100D40000F920F920F924DB75EB70F920E947D07E0
:100D5000E4EBF0E00E94C4064F915F91EF91FF91A8
:100D6000E595EE1FFF1F49F0FE57E0684427EE0FA0
:100D7000441FFA95E1F74195550B0E94F7060F9035
:100D800007FE0C94EB060895DF93CF931F930F9308
:100D9000FF92EF92DF927B018C01689406C0DA2EFD
:100DA000EF010E94C407FE01E894A59125913591B9
:100DB00045915591A6F3EF010E943608FE01970177
:100DC000A801DA9469F7DF90EF90FF900F911F91DF
:100DD000CF91DF9108959B01AC0160E070E080E865
:100DE0009FE30C9404050C94E9050C948B080E9475
:100DF0001906D8F39923C9F3940F511DA3F3915009
:100E0000504094F059F0882332F0660F771F881F06
:100E100091505040C1F79E3F51052CF7880F911D0E
:100E20009695879597F908955F3FACF0983E9CF0B2
:100E3000BB27869577956795B79508F4B16093952C
:100E4000C1F7BB0F58F711F460FFE8CF6F5F7F4F1A
:100E50008F4F9F4FE3CF0C94340616F00C948B0801
:100E60000C94EF0568940C94E9050E941906A8F308
:100E70009923C1F3AEF3DF93CF931F930F93FF92A8
:100E8000C92FDD2788232AF02197660F771F881F37
:100E9000DAF720E030E040E85FEB9FE3883920F0AC
:100EA000803E38F021968F770E941F08ECEDF0E02D
:100EB00004C00E941F08E9E0F1E00E94C4068B0113
:100EC000BE01EC01FB2E6F5771097595771F880BDA
:100ED000990B0E94AE0528E132E741E35FE30E94EF
:100EE000C407AF2D9801AE01FF900F911F91CF91D4
:100EF000DF910E9436080C940006FA01DC01AA0F6B
:100F0000BB1F9B01AC01BF5728F42227332744277E
:100F1000507820C0B75190F4AB2F002446953795F8
:100F20002795011CA395D2F3002071F0220F331FE7
:100F3000441FB395DAF30ED00C941E08613071058E
:100F4000A0E88A07B94630F49B01AC0166277727F1
:100F500088279078309621F0208331834283538311
:100F600008950E94C4070C9400060E94F20538F010
:100F70000E94F90520F0952311F00C94E9050C94DA
:100F8000EF0511240C9434060E94110670F3959F0E
:100F9000C1F3950F50E0551F629FF001729FBB2770
:100FA000F00DB11D639FAA27F00DB11DAA1F649F0C
:100FB0006627B00DA11D661F829F2227B00DA11DBF
:100FC000621F739FB00DA11D621F839FA00D611D45
:100FD000221F749F3327A00D611D231F849F600D66
:100FE000211D822F762F6A2F11249F5750409AF08F
:100FF000F1F088234AF0EE0FFF1FBB1F661F771F1B
:10100000881F91505040A9F79E3F510580F00C94E5
:10101000E9050C9434065F3FE4F3983ED4F38695DB
:1010200077956795B795F795E7959F5FC1F7FE2B85
:10103000880F911D9695879597F908955058BB276D
:10104000AA270E9436080C9400060E94F20538F088
:101050000E94F90520F039F49F3F19F426F40C940E
:10106000EF050EF4E095E7FB0C94E905E92F0E94EB
:10107000110658F3BA17620773078407950720F023
:1010800079F4A6F50C9433060EF4E0950B2EBA2FE6
:10109000A02D0B01B90190010C01CA01A00111247E
:1010A000FF27591B99F0593F50F4503E68F11A162A
:1010B000F040A22F232F342F4427585FF3CF4695BB
:1010C00037952795A795F0405395C9F77EF41F16DD
:1010D000BA0B620B730B840BBAF09150A1F0FF0FA7
:1010E000BB1F661F771F881FC2F70EC0BA0F621F93
:1010F000731F841F48F4879577956795B795F79583
:101100009E3F08F0B0CF9395880F08F09927EE0F17
:101110009795879508959F3F31F0915020F48795DA
:1011200077956795B795880F911D9695879597F94F
:10113000089597FB072E16F4009407D077FD09D089
:101140000E94BC0807FC05D03EF4909581959F4F06
:101150000895709561957F4F0895A29FB001B39F48
:10116000C001A39F700D811D1124911DB29F700DB0
:10117000811D1124911D0895AA1BBB1B51E107C0BD
:10118000AA1FBB1FA617B70710F0A61BB70B881F17
:10119000991F5A95A9F780959095BC01CD010895A6
:0411A000F894FFCFF1
:1011A40081CF9286CCA4A08D80840C000101010023
:1011B400000000000000000C01010101000000001B
:0A11C400000000009001050C00007F
:00000001FF
